{
  "contractName": "Channel",
  "abi": [
    {
      "constant": true,
      "inputs": [
        {
          "name": "",
          "type": "address"
        }
      ],
      "name": "payers",
      "outputs": [
        {
          "name": "amount",
          "type": "uint256"
        },
        {
          "name": "timeout",
          "type": "uint256"
        },
        {
          "name": "complete",
          "type": "bool"
        },
        {
          "name": "payee",
          "type": "address"
        }
      ],
      "payable": false,
      "stateMutability": "view",
      "type": "function"
    },
    {
      "inputs": [
        {
          "name": "_hub",
          "type": "address"
        },
        {
          "name": "_percentageFee",
          "type": "uint256"
        }
      ],
      "payable": false,
      "stateMutability": "nonpayable",
      "type": "constructor"
    },
    {
      "constant": false,
      "inputs": [
        {
          "name": "_timeout",
          "type": "uint256"
        },
        {
          "name": "_payee",
          "type": "address"
        }
      ],
      "name": "deposit",
      "outputs": [],
      "payable": true,
      "stateMutability": "payable",
      "type": "function"
    },
    {
      "constant": false,
      "inputs": [
        {
          "name": "h",
          "type": "bytes32"
        },
        {
          "name": "v",
          "type": "uint8"
        },
        {
          "name": "r",
          "type": "bytes32"
        },
        {
          "name": "s",
          "type": "bytes32"
        },
        {
          "name": "value",
          "type": "uint256"
        },
        {
          "name": "payer",
          "type": "address"
        }
      ],
      "name": "withdraw",
      "outputs": [],
      "payable": false,
      "stateMutability": "nonpayable",
      "type": "function"
    }
  ],
  "bytecode": "0x608060405234801561001057600080fd5b50604051604080610d7e8339810180604052810190808051906020019092919080519060200190929190505050816000806101000a81548173ffffffffffffffffffffffffffffffffffffffff021916908373ffffffffffffffffffffffffffffffffffffffff160217905550806001819055505050610ce9806100956000396000f300608060405260043610610057576000357c0100000000000000000000000000000000000000000000000000000000900463ffffffff1680634a714c241461005c5780636e553f65146100f8578063b1e755d914610138575b600080fd5b34801561006857600080fd5b5061009d600480360381019080803573ffffffffffffffffffffffffffffffffffffffff1690602001909291905050506101bc565b60405180858152602001848152602001831515151581526020018273ffffffffffffffffffffffffffffffffffffffff1673ffffffffffffffffffffffffffffffffffffffff16815260200194505050505060405180910390f35b61013660048036038101908080359060200190929190803573ffffffffffffffffffffffffffffffffffffffff169060200190929190505050610219565b005b34801561014457600080fd5b506101ba6004803603810190808035600019169060200190929190803560ff1690602001909291908035600019169060200190929190803560001916906020019092919080359060200190929190803573ffffffffffffffffffffffffffffffffffffffff1690602001909291905050506103f7565b005b60026020528060005260406000206000915090508060000154908060010154908060020160009054906101000a900460ff16908060020160019054906101000a900473ffffffffffffffffffffffffffffffffffffffff16905084565b60001515600260003373ffffffffffffffffffffffffffffffffffffffff1673ffffffffffffffffffffffffffffffffffffffff16815260200190815260200160002060020160009054906101000a900460ff1615151415156102e4576040517f08c379a00000000000000000000000000000000000000000000000000000000081526004018080602001828103825260198152602001807f536d617274494f3a6465706f7369742077697468647261776e0000000000000081525060200191505060405180910390fd5b34600260003373ffffffffffffffffffffffffffffffffffffffff1673ffffffffffffffffffffffffffffffffffffffff1681526020019081526020016000206000018190555081600260003373ffffffffffffffffffffffffffffffffffffffff1673ffffffffffffffffffffffffffffffffffffffff1681526020019081526020016000206001018190555080600260003373ffffffffffffffffffffffffffffffffffffffff1673ffffffffffffffffffffffffffffffffffffffff16815260200190815260200160002060020160016101000a81548173ffffffffffffffffffffffffffffffffffffffff021916908373ffffffffffffffffffffffffffffffffffffffff1602179055505050565b600080600084600260008673ffffffffffffffffffffffffffffffffffffffff1673ffffffffffffffffffffffffffffffffffffffff16815260200190815260200160002060000154101515156104b6576040517f08c379a000000000000000000000000000000000000000000000000000000000815260040180806020018281038252601a8152602001807f536d617274494f3a7769746864726177206f766572647261776e00000000000081525060200191505060405180910390fd5b60001515600260008673ffffffffffffffffffffffffffffffffffffffff1673ffffffffffffffffffffffffffffffffffffffff16815260200190815260200160002060020160009054906101000a900460ff161515141515610581576040517f08c379a000000000000000000000000000000000000000000000000000000000815260040180806020018281038252601a8152602001807f536d617274494f3a77697468647261772077697468647261776e00000000000081525060200191505060405180910390fd5b3085604051602001808373ffffffffffffffffffffffffffffffffffffffff1673ffffffffffffffffffffffffffffffffffffffff166c01000000000000000000000000028152601401828152602001925050506040516020818303038152906040526040518082805190602001908083835b60208310151561061957805182526020820191506020810190506020830392506105f4565b6001836020036101000a03801982511681845116808217855250505050505090500191505060405180910390209250886000191683600019161415156106c7576040517f08c379a000000000000000000000000000000000000000000000000000000000815260040180806020018281038252600d8152602001807f696e76616c69642070726f6f660000000000000000000000000000000000000081525060200191505060405180910390fd5b600189898989604051600081526020016040526040518085600019166000191681526020018460ff1660ff1681526020018360001916600019168152602001826000191660001916815260200194505050505060206040516020810390808403906000865af115801561073e573d6000803e3d6000fd5b5050506020604051035191506107b460646107a6600154600260008973ffffffffffffffffffffffffffffffffffffffff1673ffffffffffffffffffffffffffffffffffffffff16815260200190815260200160002060000154610c3490919063ffffffff16565b610c7290919063ffffffff16565b905042600260008673ffffffffffffffffffffffffffffffffffffffff1673ffffffffffffffffffffffffffffffffffffffff1681526020019081526020016000206001015411801561083257508373ffffffffffffffffffffffffffffffffffffffff168273ffffffffffffffffffffffffffffffffffffffff16145b15610996576001600260008673ffffffffffffffffffffffffffffffffffffffff1673ffffffffffffffffffffffffffffffffffffffff16815260200190815260200160002060020160006101000a81548160ff0219169083151502179055506000809054906101000a900473ffffffffffffffffffffffffffffffffffffffff1673ffffffffffffffffffffffffffffffffffffffff166108fc829081150290604051600060405180830381858888f193505050501580156108f9573d6000803e3d6000fd5b508373ffffffffffffffffffffffffffffffffffffffff166108fc61096983600260008973ffffffffffffffffffffffffffffffffffffffff1673ffffffffffffffffffffffffffffffffffffffff16815260200190815260200160002060000154610c9c90919063ffffffff16565b9081150290604051600060405180830381858888f19350505050158015610994573d6000803e3d6000fd5b505b42600260008673ffffffffffffffffffffffffffffffffffffffff1673ffffffffffffffffffffffffffffffffffffffff1681526020019081526020016000206001015411158015610a755750600260008573ffffffffffffffffffffffffffffffffffffffff1673ffffffffffffffffffffffffffffffffffffffff16815260200190815260200160002060020160019054906101000a900473ffffffffffffffffffffffffffffffffffffffff1673ffffffffffffffffffffffffffffffffffffffff168273ffffffffffffffffffffffffffffffffffffffff16145b15610c29576001600260008673ffffffffffffffffffffffffffffffffffffffff1673ffffffffffffffffffffffffffffffffffffffff16815260200190815260200160002060020160006101000a81548160ff0219169083151502179055506000809054906101000a900473ffffffffffffffffffffffffffffffffffffffff1673ffffffffffffffffffffffffffffffffffffffff166108fc829081150290604051600060405180830381858888f19350505050158015610b3c573d6000803e3d6000fd5b50600260008573ffffffffffffffffffffffffffffffffffffffff1673ffffffffffffffffffffffffffffffffffffffff16815260200190815260200160002060020160019054906101000a900473ffffffffffffffffffffffffffffffffffffffff1673ffffffffffffffffffffffffffffffffffffffff166108fc600260008773ffffffffffffffffffffffffffffffffffffffff1673ffffffffffffffffffffffffffffffffffffffff168152602001908152602001600020600001549081150290604051600060405180830381858888f19350505050158015610c27573d6000803e3d6000fd5b505b505050505050505050565b6000806000841415610c495760009150610c6b565b8284029050828482811515610c5a57fe5b04141515610c6757600080fd5b8091505b5092915050565b600080600083111515610c8457600080fd5b8284811515610c8f57fe5b0490508091505092915050565b600080838311151515610cae57600080fd5b828403905080915050929150505600a165627a7a72305820349b675c1ba5ee389135874c8a7fbca0709104a2376030b16375109f3a647e740029",
  "source": "pragma solidity ^0.4.24;\n\nimport \"./SafeMath.sol\";\n\ncontract Channel {\n    using SafeMath for uint256;\n\n    address hub;\n    uint256 percentageFee;\n\n    struct Deposit {\n        uint256 amount;\n        uint256 timeout;\n        bool complete;\n        address payee;\n    }\n    mapping(address => Deposit) public payers;\n    \n    constructor(address _hub, uint256 _percentageFee) public {\n        hub = _hub;\n        percentageFee = _percentageFee;\n    }\n\n    function deposit(uint _timeout, address _payee) public payable {\n        require(payers[msg.sender].complete == false, \"SmartIO:deposit withdrawn\");\n\n        payers[msg.sender].amount = msg.value;\n        payers[msg.sender].timeout = _timeout;\n        payers[msg.sender].payee = _payee;\n    }\n\n    function withdraw(bytes32 h, uint8 v, bytes32 r, bytes32 s, uint256 value, address payer) public {\n        require(payers[payer].amount >= value, \"SmartIO:withdraw overdrawn\");\n        require(payers[payer].complete == false, \"SmartIO:withdraw withdrawn\");\n\n        bytes32 proof = keccak256(abi.encodePacked(this, value));\n        require(proof == h, \"invalid proof\");\n\n        address signer = ecrecover(h, v, r, s);\n        uint256 fee = payers[payer].amount.mul(percentageFee).div(100);\n\n        if (payers[payer].timeout > now && signer == payer) {\n            payers[payer].complete = true;\n            hub.transfer(fee);\n            payer.transfer(payers[payer].amount.sub(fee));\n        }\n\n        if (payers[payer].timeout <= now && signer == payers[payer].payee) {\n            payers[payer].complete = true;\n            hub.transfer(fee);\n            payers[payer].payee.transfer(payers[payer].amount);\n        }\n    }\n}\n",
  "sourcePath": "/Users/james/projects/LunchBadger/statechannels/sol/contracts/Channel.sol",
  "compiler": {
    "name": "solc",
    "version": "0.4.24+commit.e67f0147.Emscripten.clang"
  },
  "schemaVersion": "2.0.1",
  "updatedAt": "2018-09-28T19:38:50.539Z"
}